00016061C201812171EMPRESA000000012325000000024                                                                                                                                                                                                                                                                                                                
037070472355              00140478800003610704254356DOCENTE        2018121900000000055000000000000000000000000000000000000000000000000   000000000000000                      0000000000000000000000000000000000000000                                                                                                                                        
037020472355              00140478800003610704254356DOCENTE        2018121900000000060000000000000000000000000000000000000000000000000   000000000000000                      0000000000000000000000000000000000000000                                                                                                                                        
037014801237              01910293900055029351545682AUXILIAR       2018121900000000021500000000000000000000000000000000000000000000000   000000000000000                      0000000000000000000000000000000000000000                                                                                                                                        
037032351229              00140371600003701350809590ESTUDIANTE     2018121900000000064600000000000000000000000000000000000000000000000   000000000000000                      0000000000000000000000000000000000000000                                                                                                                                        
037014757739              09700016100055000527790019EDITORIAL      2018121900000000076500000000000000000000000000000000000000000000000   000000000000000                      0000000000000000000000000000000000000000                                                                                                                                        
037035400799              00140321100003653251063701EDITORIAL      2018121900000000030600000000000000000000000000000000000000000000000   000000000000000                      0000000000000000000000000000000000000000                                                                                                                                        
037016438778              03300026600020260009893085ADMINISTRATIVA 2018121900000000035400000000000000000000000000000000000000000000000   000000000000000                      0000000000000000000000000000000000000000                                                                                                                                        
037028837485              00200359500011000011101758DOCENTE        2018121900000000036800000000000000000000000000000000000000000000000   000000000000000                      0000000000000000000000000000000000000000                                                                                                                                        
037022691890              00200333500011000011100694AUXILIAR       2018121900000000018400000000000000000000000000000000000000000000000   000000000000000                      0000000000000000000000000000000000000000                                                                                                                                        
037071672750              00340253700008122527188006POLICIA        2018121900000000019300000000000000000000000000000000000000000000000   000000000000000                      0000000000000000000000000000000000000000                                                                                                                                        
037023784752              00070368800030004004056824EDITORIAL      2018121900000000097000000000000000000000000000000000000000000000000   000000000000000                      0000000000000000000000000000000000000000                                                                                                                                        
037030070143              00110145000030014514988151EDITORIAL      2018121900000000091600000000000000000000000000000000000000000000000   000000000000000                      0000000000000000000000000000000000000000                                                                                                                                        
037023663851              01910084100055108462118353EDITORIAL      2018121900000000073000000000000000000000000000000000000000000000000   000000000000000                      0000000000000000000000000000000000000000                                                                                                                                        
037034240487              01910358100055135800236053EDITORIAL      2018121900000000060000000000000000000000000000000000000000000000000   000000000000000                      0000000000000000000000000000000000000000                                                                                                                                        
037031672750              00340253700008122527188006POLICIA        2018121900000000046500000000000000000000000000000000000000000000000   000000000000000                      0000000000000000000000000000000000000000                                                                                                                                        
037038813206              00970007900055007665130015EDITORIAL      2018121900000000040500000000000000000000000000000000000000000000000   000000000000000                      0000000000000000000000000000000000000000                                                                                                                                        
037025708006              00070166800030004023835112EDITORIAL      2018121900000000057900000000000000000000000000000000000000000000000   000000000000000                      0000000000000000000000000000000000000000                                                                                                                                        
037034785756              00930304900021500103377878EDITORIAL      2018121900000000042000000000000000000000000000000000000000000000000   000000000000000                      0000000000000000000000000000000000000000                                                                                                                                        
037080472355              00140478800003610704254356DOCENTE        2018121900000000067000000000000000000000000000000000000000000000000   000000000000000                      0000000000000000000000000000000000000000                                                                                                                                        
037031672499              00930300100021500103788214EDITORIAL      2018121900000000043400000000000000000000000000000000000000000000000   000000000000000                      0000000000000000000000000000000000000000                                                                                                                                        
037036858755              01910121900055112100141971EDITORIAL      2018121900000000031700000000000000000000000000000000000000000000000   000000000000000                      0000000000000000000000000000000000000000                                                                                                                                        
037078813206              00970007900055007665130015EDITORIAL      2018121900000000057400000000000000000000000000000000000000000000000   000000000000000                      0000000000000000000000000000000000000000                                                                                                                                        
037034214080              00110344900030034411510497PARTICULAR     2018121900000000039700000000000000000000000000000000000000000000000   000000000000000                      0000000000000000000000000000000000000000                                                                                                                                        
037094298668              03220052000029006444380013AUXILIAR       2018121900000000066700000000000000000000000000000000000000000000000   000000000000000                      0000000000000000000000000000000000000000                                                                                                                                        
99016061C201812171EMPRESA000000012325000000024                                                                                                                                                                                                                                                                                                                
