H30716028956CUOTA     10003062024ORI03060.100EDIT EL FARO                                                                                                                                               
D00033368833034025130812218294300200000000035           05062024CUOTA                    EDIT EL FARO   0003500000P                                                                          30716028956
D00033368833034025130812218294300200000000036           05062024CUOTA                    EDIT EL FARO   0000430000P                                                                          30716028956
D00022014431034026120812385124600800000000124           05062024CUOTA                    EDIT EL FARO   0000700000P                                                                          30716028956
D00014074608034029400873002378900300000000034           05062024CUOTA                    EDIT EL FARO   0002138000P                                                                          30716028956
D00020343732034026120812385124300900000000114           05062024CUOTA                    EDIT EL FARO   0000375000P                                                                          30716028956
D00016644633034026120812385225701800000000121           05062024CUOTA                    EDIT EL FARO   0000620000P                                                                          30716028956
D00012257569034026120812385606500800000000132           05062024CUOTA                    EDIT EL FARO   0000795000P                                                                          30716028956
D00038548303034026120812385640500000000000120           05062024CUOTA                    EDIT EL FARO   0001250000P                                                                          30716028956
D00025888787034026120812385108400200000000119           05062024CUOTA                    EDIT EL FARO   0000962000P                                                                          30716028956
D00034436633034027800812670015000000000000122           05062024CUOTA                    EDIT EL FARO   0001120000P                                                                          30716028956
D00030492327034026120871945396800000000000116           05062024CUOTA                    EDIT EL FARO   0000450000P                                                                          30716028956
D00025519054034026120812385018302100000000123           05062024CUOTA                    EDIT EL FARO   0000320000P                                                                          30716028956
D00022611686034026120812385137800400000000130           05062024CUOTA                    EDIT EL FARO   0000650000P                                                                          30716028956
D00027190929034026120873004139400900000000129           05062024CUOTA                    EDIT EL FARO   0001120000P                                                                          30716028956
D00024071391034026120812385287701200000000111           05062024CUOTA                    EDIT EL FARO   0000610000P                                                                          30716028956
D00028487957034026120812386012100800000000128           05062024CUOTA                    EDIT EL FARO   0001600000P                                                                          30716028956
D00033865889034026120812385324100100000000110           05062024CUOTA                    EDIT EL FARO   0001558000P                                                                          30716028956
D00024071380034026120812200645700100000000126           05062024CUOTA                    EDIT EL FARO   0001800000P                                                                          30716028956
D00031524047034026120812385181703100000000133           05062024CUOTA                    EDIT EL FARO   0000550000P                                                                          30716028956
T0000019000000020548000                                                                                                                                                                                 
