0RDEBLIQC900000    0040832883202008141810                                                                                                                                                                                                                                                                  *
100716698830005 0040832883450979018771759400002666140820      000000000050100  000000037343686000000037343686 0000000000         151NRO. DE TARJETA INCORRECTO   00                             98830000100000200000000000000000140820      00                                                             *
100716698830005 0040832883450994800040327700002842140820      000000000084000  000000025592860000000025592860 0745303080         199TARJETA NO OPERATIVA POR LA E00                             98830000100000300000000000000000140820      00                                                             *
100716698830005 0040832883454846000523356100003059140820      000000000050000  000000038360480000000038360480 0000000000         151NRO. DE TARJETA INCORRECTO   00                             98830000100000400000000000000000140820      00                                                             *
100716698830005 0040832883454640006343859700003095140820      000000000059500  000000029314635000000029314635 0845652336         199TARJETA NO OPERATIVA POR LA E00                             98830000100000500000000000000000140820      00                                                             *
100716698830005 0040832883454832001952125400003854140820      000000000027200  000000036764829000000036764829 0823373350         155TARJETA NO OPERATIVA         00                             98830000100000600000000000000000140820      00                                                             *
100716698830005 0040832883498484000016135700004028140820      000000000037200  000000035736440000000035736440 0538075428         199TARJETA NO OPERATIVA POR LA E00                             98830000100000700000000000000000140820      00                                                             *
100716698830005 0040832883498484000016135700004029140820      000000000023800  000000035736440000000035736440 0538075428         199TARJETA NO OPERATIVA POR LA E00                             98830000100000800000000000000000140820      00                                                             *
100716698830005 0040832883454832002082673400004108140820      000000000120000  000000031433093000000031433093 0605607738         156TARJETA VENCIDA              00                             98830000100000900000000000000000140820      00                                                             *
100716698830005 0040832883454846000535221300004130140820      000000000045000  000000037365788000000037365788 0863320587         155TARJETA NO OPERATIVA         00                             98830000100001000000000000000000140820      00                                                             *
100716698830005 0040832883454075005440280400004461140820      000000000075000  000000033576272000000033576272 0917868261         199TARJETA NO OPERATIVA POR LA E00                             98830000100001100000000000000000140820      00                                                             *
100716698830005 0040832883454850300234878100004465140820      000000000069000  000000032432637000000032432637 0422091727         000                             00                             98830000100001200000000000000000140820      02                                                             *
100716698830005 0040832883454846000565140800004489140820      000000000069000  000000019039621000000019039621 0878824506         000                             00                             98830000100001300000000000000000140820      01                                                             *
100716698830005 0040832883462082000001260200004744140820      000000000065000  000000024100614000000024100614 0554813347         000                             00                             98830000100001400000000000000000140820      03                                                             *
100716698830005 0040832883454846000528936500004784140820      000000000111900  000000036361893000000036361893 0860381367         155TARJETA NO OPERATIVA         00                             98830000100001500000000000000000140820      00                                                             *
100716698830005 0040832883450750300003744300004912140820      000000000069000  000000030918850000000030918850 0919320853         000                             00                             98830000100001600000000000000000140820      02                                                             *
100716698830005 0040832883450751200015763000004917140820      000000000149000  000000020596222000000020596222 0559808742         000                             00                             98830000100001700000000000000000140820      02                                                             *
100716698830005 0040832883402918751747259700004918140820      000000000068000  000000026215321000000026215321 0259724568         000                             00                             98830000100001800000000000000000140820      03                                                             *
100716698830005 0040832883450994000570274600004920140820      000000000068900  000000024510226000000024510226 0826854759         000                             00                             98830000100001900000000000000000140820      04                                                             *
100716698830005 0040832883402918392940504400004932140820      000000000079000  000000026016482000000026016482 0521719236         000                             00                             98830000100002000000000000000000140820      03                                                             *
100716698830005 0040832883450979016480386200004964140820      000000000074700  000000024237301000000024237301 0762386741         000                             00                             98830000100002100000000000000000140820      01                                                             *
100716698830005 0040832883454850000749325700004974140820      000000000029000  000000028154732000000028154732 0167957155         000                             00                             98830000100002200000000000000000140820      03                                                             *
100716698830005 0040832883454832001733175500004977140820      000000000029000  000000035073276000000035073276 0736314943         000                             00                             98830000100002300000000000000000140820      02                                                             *
100716698830005 0040832883454832002290465300004982140820      000000000036000  000000039746099000000039746099 0938801016         155TARJETA NO OPERATIVA         00                             98830000100002400000000000000000140820      00                                                             *
100716698830005 0040832883454075005440280400005085140820      000000000030000  000000026254697000000026254697 0917868261         199TARJETA NO OPERATIVA POR LA E00                             98830000100002500000000000000000140820      00                                                             *
100716698830005 0040832883454832300102692800005122140820      000000000036700  000000023332084000000023332084 0359417184         155TARJETA NO OPERATIVA         00                             98830000100002600000000000000000140820      00                                                             *
100716698830005 0040832883454832001357019000005256140820      000000000059000  000000036373659000000036373659 0629941744         155TARJETA NO OPERATIVA         00                             98830000100002700000000000000000140820      00                                                             *
100716698830005 0040832883454850000550624100005288140820      000000000112900  000000017993014000000017993014 0155360107         000                             00                             98830000100002800000000000000000140820      02                                                             *
100716698830005 0040832883454832001795869800005293140820      000000000029000  000000039286633000000039286633 0659184306         155TARJETA NO OPERATIVA         00                             98830000100002900000000000000000140820      00                                                             *
100716698830005 0040832883454832002045004800005297140820      000000000035000  000000030266640000000030266640 0629898521         155TARJETA NO OPERATIVA         00                             98830000100003000000000000000000140820      00                                                             *
100716698830005 0040832883402918718422514600006004140820      000000000025100  000000033181425000000033181425 0585680684         199TARJETA NO OPERATIVA POR LA E00                             98830000100003100000000000000000140820      00                                                             *
100716698830005 0040832883454850000759005200006038140820      000000000121900  000000016482930000000016482930 0154204367         000                             00                             98830000100003200000000000000000140820      02                                                             *
100716698830005 0040832883454832000570002900006047140820      000000000119000  000000031685554000000031685554 0379627406         000                             00                             98830000100003300000000000000000140820      02                                                             *
100716698830005 0040832883405071005358555500006165140820      000000000178500  000000031663923000000031663923 0196923662         000                             00                             98830000100003404050710156550183140820      01                                                             *
100716698830005 0040832883454451200043119600006251140820      000000000120000  000000025042699000000025042699 0775540965         000                             00                             98830000100003500000000000000000140820      03                                                             *
100716698830005 0040832883450995016735728800006286140820      000000000027000  000000027369246000000027369246 0711044739         000                             00                             98830000100003600000000000000000140820      01                                                             *
100716698830005 0040832883450750300002653700006290140820      000000000268700  000000032736633000000032736633 0837038083         000                             00                             98830000100003704507503000045479140820      02                                                             *
100716698830005 0040832883450750300002653700006291140820      000000000029000  000000032736633000000032736633 0837038083         000                             00                             98830000100003804507503000045479140820      02                                                             *
100716698830005 0040832883430496003324876600006310140820      000000000140000  000000024925221000000024925221 0317217883         000                             00                             98830000100003900000000000000000140820      01                                                             *
100716698830005 0040832883402918827283166200006375140820      000000000044300  000000033665706000000033665706 0866970420         199TARJETA NO OPERATIVA POR LA E00                             98830000100004000000000000000000140820      00                                                             *
100716698830005 0040832883402918345522616000006403140820      000000000035800  000000032160546000000032160546 0761834258         000                             00                             98830000100004104029181582480718140820      03                                                             *
100716698830005 0040832883454832300279499500006427140820      000000000078000  000000030179764000000030179764 0448046727         000                             00                             98830000100004200000000000000000140820      02                                                             *
100716698830005 0040832883454832001851647900006435140820      000000000076000  000000037344860000000037344860 0781109868         000                             00                             98830000100004300000000000000000140820      01                                                             *
100716698830005 0040832883402918926625188300006437140820      000000000069000  000000027512219000000027512219 0180512144         000                             00                             98830000100004400000000000000000140820      03                                                             *
100716698830005 0040832883412705000004202300006493140820      000000000035000  000000020286063000000020286063 0459588748         000                             00                             98830000100004500000000000000000140820      02                                                             *
100716698830005 0040832883454832002203680300006578140820      000000000078000  000000036098268000000036098268 0682536370         000                             00                             98830000100004600000000000000000140820      02                                                             *
100716698830005 0040832883454850001444096000006592140820      000000000143300  000000022716075000000022716075 0606648192         000                             00                             98830000100004700000000000000000140820      01                                                             *
100716698830005 0040832883454850001254202300006594140820      000000000065000  000000014784673000000014784673 0156854782         000                             00                             98830000100004800000000000000000140820      02                                                             *
100716698830005 0040832883454832001577586200006616140820      000000000039000  000000025911749000000025911749 0690545731         000                             00                             98830000100004900000000000000000140820      02                                                             *
100716698830005 0040832883454850001659470700006643140820      000000000031500  000000013999009000000013999009 0378941662         000                             00                             98830000100005000000000000000000140820      02                                                             *
100716698830005 0040832883454832002111093000006648140820      000000000081000  000000007663822000000007663822 0875739782         000                             00                             98830000100005104548320023497285140820      02                                                             *
100716698830005 0040832883454832002160731500006692140820      000000000108000  000000020499487000000020499487 0896821819         000                             00                             98830000100005200000000000000000140820      02                                                             *
100716698830005 0040832883454850000930892500006701140820      000000000062900  000000024481447000000024481447 0322009981         155TARJETA NO OPERATIVA         00                             98830000100005300000000000000000140820      00                                                             *
100716698830005 0040832883454832001492989000006708140820      000000000094000  000000017692068000000017692068 0488346669         000                             00                             98830000100005400000000000000000140820      02                                                             *
100716698830005 0040832883402918231717500300006716140820      000000000092000  000000013161581000000013161581 0678319824         000                             00                             98830000100005504029185440694345140820      03                                                             *
100716698830005 0040832883454850000756632600006728140820      000000000112100  000000018093142000000018093142 0120637409         000                             00                             98830000100005600000000000000000140820      02                                                             *
100716698830005 0040832883454850300194978700006729140820      000000000059000  000000020039139000000020039139 0150700708         000                             00                             98830000100005700000000000000000140820      02                                                             *
100716698830005 0040832883454850001173475300006730140820      000000000041700  000000020566752000000020566752 0454181164         000                             00                             98830000100005800000000000000000140820      01                                                             *
100716698830005 0040832883454832000719014600006737140820      000000000037700  000000030447319000000030447319 0442455330         000                             00                             98830000100005900000000000000000140820      02                                                             *
100716698830005 0040832883454846000519965500006761140820      000000000029500  000000027083978000000027083978 0858947720         000                             00                             98830000100006000000000000000000140820      02                                                             *
100716698830005 0040832883454850000974222200006769140820      000000000098100  000000027314984000000027314984 0354282125         000                             00                             98830000100006100000000000000000140820      02                                                             *
100716698830005 0040832883454846000586676600006786140820      000000000059000  000000031989559000000031989559 0325284176         000                             00                             98830000100006200000000000000000140820      02                                                             *
100716698830005 0040832883454846000586676600006787140820      000000000072000  000000031989559000000031989559 0325284176         000                             00                             98830000100006300000000000000000140820      02                                                             *
100716698830005 0040832883454073001256346700006792140820      000000000042500  000000037388338000000037388338 0685860939         000                             00                             98830000100006400000000000000000140820      01                                                             *
100716698830005 0040832883454850001520554500006818140820      000000000044500  000000027379420000000027379420 0571557266         000                             00                             98830000100006500000000000000000140820      02                                                             *
100716698830005 0040832883454846300062983300006837140820      000000000033800  000000033903834000000033903834 0595580086         000                             00                             98830000100006600000000000000000140820      02                                                             *
100716698830005 0040832883454850001440995700006841140820      000000000087000  000000031313284000000031313284 0604802615         000                             00                             98830000100006700000000000000000140820      02                                                             *
100716698830005 0040832883454850000761032200006952140820      000000000044500  000000029269362000000029269362 0258639261         000                             00                             98830000100006800000000000000000140820      03                                                             *
100716698830005 0040832883454832002092621100006957140820      000000000033800  000000032638780000000032638780 0743051080         199TARJETA NO OPERATIVA POR LA E00                             98830000100006900000000000000000140820      00                                                             *
100716698830005 0040832883402918873481788700006960140820      000000000073800  000000028648969000000028648969 0580955637         000                             00                             98830000100007000000000000000000140820      03                                                             *
100716698830005 0040832883454832001356081100006985140820      000000000034000  000000031395763000000031395763 0629930689         000                             00                             98830000100007100000000000000000140820      02                                                             *
100716698830005 0040832883454832001885736000006987140820      000000000056000  000000029047609000000029047609 0776986551         000                             00                             98830000100007200000000000000000140820      02                                                             *
100716698830005 0040832883454850000550624100007017140820      000000000079000  000000017993014000000017993014 0155360107         000                             00                             98830000100007300000000000000000140820      02                                                             *
100716698830005 0040832883454846000406882800007020140820      000000000079000  000000017674030000000017674030 0782536104         000                             00                             98830000100007400000000000000000140820      02                                                             *
100716698830005 0040832883454832002014370000007028140820      000000000059000  000000014861145000000014861145 0839719555         155TARJETA NO OPERATIVA         00                             98830000100007500000000000000000140820      00                                                             *
100716698830005 0040832883454850001621514700007048140820      000000000079000  000000040495408000000040495408 0797628937         000                             00                             98830000100007600000000000000000140820      01                                                             *
100716698830005 0040832883454832002096002000007051140820      000000000081000  000000038927405000000038927405 0870852280         000                             00                             98830000100007700000000000000000140820      02                                                             *
100716698830005 0040832883454850300181473400007058140820      000000000039000  000000032886100000000032886100 0442540966         000                             00                             98830000100007800000000000000000140820      02                                                             *
100716698830005 0040832883454832001903655000007069140820      000000000077000  000000039207231000000039207231 0707464488         000                             00                             98830000100007900000000000000000140820      02                                                             *
100716698830005 0040832883454832300249899300007087140820      000000000049000  000000030918514000000030918514 0776996248         000                             00                             98830000100008004548320024566906140820      02                                                             *
100716698830005 0040832883454832300243939300007095140820      000000000045000  000000031955949000000031955949 0792451732         000                             00                             98830000100008100000000000000000140820      02                                                             *
100716698830005 0040832883454832002102294500007101140820      000000000043500  000000037667303000000037667303 0873700357         199TARJETA NO OPERATIVA POR LA E00                             98830000100008200000000000000000140820      00                                                             *
100716698830005 0040832883454832001410783600007148140820      000000000080300  000000028664587000000028664587 0629941249         000                             00                             98830000100008300000000000000000140820      02                                                             *
100716698830005 0040832883454832002286928600007154140820      000000000071500  000000036512565000000036512565 0938505093         179CUENTA SIN DISPONIBLE        00                             98830000100008400000000000000000140820      00                                                             *
100716698830005 0040832883450832002136441000007162140820      000000000053000  000000034547264000000034547264 0888860815         000                             00                             98830000100008500000000000000000140820      02                                                             *
100716698830005 0040832883450979800943749900007165140820      000000000063000  000000039289224000000039289224 0874909197         000                             00                             98830000100008604509950222658787140820      02                                                             *
100716698830005 0040832883476540800003632900007184140820      000000000047000  000000021759417000000021759417 0554012393         000                             00                             98830000100008704765408000118739140820      01                                                             *
100716698830005 0040832883454832002184964400007236140820      000000000081200  000000034046074000000034046074 0795141140         000                             00                             98830000100008800000000000000000140820      01                                                             *
100716698830005 0040832883402918130901451900007262140820      000000000162000  000000037983366000000037983366 0861041163         000                             00                             98830000100008900000000000000000140820      03                                                             *
100716698830005 0040832883454832002177436200007268140820      000000000084000  000000017054990000000017054990 0898494587         000                             00                             98830000100009000000000000000000140820      01                                                             *
100716698830005 0040832883454832002208701200007340140820      000000000093000  000000021578519000000021578519 0909475192         191BAJA DE DEB. AUT. SOLICITADA 00                             98830000100009100000000000000000140820      00                                                             *
100716698830005 0040832883402918681524298300007347140820      000000000035000  000000021664479000000021664479 0540959521         000                             00                             98830000100009204029188423683558140820      03                                                             *
100716698830005 0040832883402918175285887500007355140820      000000000084000  000000034001591000000034001591 0577174791         000                             00                             98830000100009300000000000000000140820      03                                                             *
100716698830005 0040832883454832002249765800007397140820      000000000087000  000000039515801000000039515801 0923327235         000                             00                             98830000100009400000000000000000140820      01                                                             *
100716698830005 0040832883454832001628025000007412140820      000000000123000  000000028672730000000028672730 0707456773         000                             00                             98830000100009500000000000000000140820      02                                                             *
100716698830005 0040832883454832002249765800007420140820      000000000087000  000000039515801000000039515801 0923327235         000                             00                             98830000100009600000000000000000140820      01                                                             *
100716698830005 0040832883454846000467538200007426140820      000000000127000  000000037198897000000037198897 0834049042         000                             00                             98830000100009700000000000000000140820      01                                                             *
100716698830005 0040832883454832002281795400007427140820      000000000068000  000000035271224000000035271224 0936216197         000                             00                             98830000100009800000000000000000140820      01                                                             *
100716698830005 0040832883450979016400792800007428140820      000000000046000  000000037698927000000037698927 0761251136         000                             00                             98830000100009900000000000000000140820      01                                                             *
100716698830005 0040832883402918994509906700007436140820      000000000099000  000000034206631000000034206631 0483449653         000                             00                             98830000100010000000000000000000140820      03                                                             *
100716698840005 0040832883454832002425948600007451140820      000000000081000  000000035827807000000035827807 0972054463         000                             00                             98830010100010200000000000000000140820      01                                                             *
100716698840005 0040832883454832002058376400007471140820      000000000210000  000000036361599000000036361599 0857983167         000                             00                             98830010100010300000000000000000140820      01                                                             *
100716698840005 0040832883454850001496862200007522140820      000000000053200  000000031000842000000031000842 0450121414         000                             00                             98830010100010404548460005043937140820      02                                                             *
100716698840005 0040832883402918395290819500007535140820      000000000126000  000000003600862000000003600862 0103904966         000                             00                             98830010100010500000000000000000140820      03                                                             *
100716698840005 0040832883454832000570002900007572140820      000000000049000  000000031685554000000031685554 0379627406         000                             00                             98830010100010600000000000000000140820      02                                                             *
100716698840005 0040832883454832001927290800007573140820      000000000099000  000000036764843000000036764843 0804817095         000                             00                             98830010100010700000000000000000140820      02                                                             *
100716698840005 0040832883454832001336365300007575140820      000000000104000  000000028138880000000028138880 0325266545         000                             00                             98830010100010800000000000000000140820      02                                                             *
100716698840005 0040832883454832002209489300007578140820      000000000094000  000000033536999000000033536999 0909647717         179CUENTA SIN DISPONIBLE        00                             98830010100010900000000000000000140820      00                                                             *
100716698840005 0040832883454850001621514700007595140820      000000000039000  000000040495408000000040495408 0797628937         000                             00                             98830010100011000000000000000000140820      01                                                             *
100716698840005 0040832883454850001058040500007608140820      000000000038700  000000029902958000000029902958 0402474788         000                             00                             98830010100011100000000000000000140820      02                                                             *
100716698840005 0040832883454832002280675900007613140820      000000000033800  000000038995230000000038995230 0935949403         199TARJETA NO OPERATIVA POR LA E00                             98830010100011200000000000000000140820      00                                                             *
100716698840005 0040832883402918674883267800007636140820      000000000054600  000000022614681000000022614681 0438485532         000                             00                             98830010100011304029180164568346140820      03                                                             *
100716698840005 0040832883454075002541306200007637140820      000000000062300  000000030880111000000030880111 0372020172         000                             00                             98830010100011400000000000000000140820      02                                                             *
100716698840005 0040832883454850001013889900007645140820      000000000038700  000000024853747000000024853747 0378069696         000                             00                             98830010100011500000000000000000140820      02                                                             *
100716698840005 0040832883402918279460474900007656140820      000000000092000  000000011346082000000011346082 0716704548         199TARJETA NO OPERATIVA POR LA E00                             98830010100011600000000000000000140820      00                                                             *
100716698840005 0040832883402918498993586200007657140820      000000000068400  000000029576815000000029576815 0922494125         000                             00                             98830010100011704029185803946035140820      03                                                             *
100716698840005 0040832883454850300234878100007669140820      000000000089800  000000032432637000000032432637 0422091727         000                             00                             98830010100011800000000000000000140820      02                                                             *
100716698840005 0040832883454832002249765800007679140820      000000000124000  000000039515801000000039515801 0923327235         000                             00                             98830010100011900000000000000000140820      01                                                             *
100716698840005 0040832883450979015962904100007680140820      000000000084000  000000024114582000000024114582 0736558295         000                             00                             98830010100012000000000000000000140820      01                                                             *
100716698840005 0040832883454850001217630100007685140820      000000000088000  000000016125032000000016125032 0474223051         000                             00                             98830010100012100000000000000000140820      02                                                             *
100716698840005 0040832883454850001217630100007686140820      000000000092000  000000016125032000000016125032 0474223051         000                             00                             98830010100012200000000000000000140820      02                                                             *
100716698840005 0040832883454832002107955600007687140820      000000000034000  000000019008045000000019008045 0874854053         000                             00                             98830010100012300000000000000000140820      01                                                             *
100716698840005 0040832883402918926443390500007711140820      000000000048500  000000025417963000000025417963 0643636411         000                             00                             98830010100012404029185450221468140820      03                                                             *
100716698840005 0040832883402918357270521100007719140820      000000000144000  000000017214539000000017214539 0930458784         000                             00                             98830010100012500000000000000000140820      03                                                             *
100716698840005 0040832883402918912719964400007745140820      000000000029000  000000022209695000000022209695 0603060399         000                             00                             98830010100012600000000000000000140820      03                                                             *
100716698840005 0040832883402918926443390500007759140820      000000000107500  000000025417963000000025417963 0643636411         000                             00                             98830010100012704029185450221468140820      03                                                             *
100716698840005 0040832883456582000074118100007773140820      000000000047400  000000020224365000000020224365 0348430664         000                             00                             98830010100012800000000000000000140820      01                                                             *
100716698840005 0040832883454846000322727600007795140820      000000000131000  000000027255416000000027255416 0687204481         000                             00                             98830010100012900000000000000000140820      02                                                             *
100716698840005 0040832883454850300106412400007811140820      000000000039000  000000014050818000000014050818 0093296913         000                             00                             98830010100013000000000000000000140820      02                                                             *
100716698840005 0040832883402918926625188300007830140820      000000000049000  000000027512219000000027512219 0180512144         000                             00                             98830010100013100000000000000000140820      03                                                             *
100716698840005 0040832883402918231717500300007834140820      000000000098900  000000013161581000000013161581 0678319824         000                             00                             98830010100013204029185440694345140820      03                                                             *
100716698840005 0040832883450979016400792800007890140820      000000000104000  000000037698927000000037698927 0761251136         000                             00                             98830010100013300000000000000000140820      01                                                             *
100716698840005 0040832883454832002203680300007925140820      000000000104000  000000036098268000000036098268 0682536370         000                             00                             98830010100013400000000000000000140820      02                                                             *
100716698840005 0040832883454832002147464100007928140820      000000000049000  000000027563600000000027563600 0893277370         000                             00                             98830010100013500000000000000000140820      02                                                             *
100716698840005 0040832883454832300271186600007930140820      000000000044000  000000021636699000000021636699 0746892868         000                             00                             98830010100013600000000000000000140820      02                                                             *
100716698840005 0040832883454832002267509700007942140820      000000000047000  000000034404127000000034404127 0930818238         000                             00                             98830010100013700000000000000000140820      01                                                             *
100716698840005 0040832883450832002136441000007152140820      000000000084000  000000034547264000000034547264 0888860815         000                             00                             98830010100013800000000000000000140820      02                                                             *
100716698840005 0040832883454850300148975000007476140820      000000000162000  000000024853668000000024853668 0132136631         000                             00                             98830010100013900000000000000000140820      02                                                             *
9RDEBLIQC900000    00408328832020081418100000137000000010078200                                                                                                                                                                                                                                            *
