0LDEBLIQD900000    0032476269201805230907                                                                                                            *
14737110907414014   00003088201805180005000000000069800000000029555010           0  0               021DISPONIBLE INSUFICIENTE                       *
14513772154643007   00003414201805180005000000000029500000000024294399           0  0               021DISPONIBLE INSUFICIENTE                       *
14513771487823005   00003086201805180005000000000023800000000031785511           0  0               021DISPONIBLE INSUFICIENTE                       *
14398185585411037   00003306201805180005000000000040500000000031120962           0  0               021DISPONIBLE INSUFICIENTE                       *
14737110586702036   00003322201805180005000000000081800000000034218286           0  0               021DISPONIBLE INSUFICIENTE                       *
14737110772685003   00003318201805180005000000000069300000000039278418           0  0               021DISPONIBLE INSUFICIENTE                       *
14517570010389534   00001371201805180005000000000021500000000013462319           0  0               021DISPONIBLE INSUFICIENTE                       *
14513771880210008   00003177201805180005000000000056000000000038523442           0  0               021DISPONIBLE INSUFICIENTE                       *
14513771555646015   00003175201805180005000000000027200000000037671482           0  0               021DISPONIBLE INSUFICIENTE                       *
14737110663784030   00003239201805180005000000000063000000000037926824           0  0               021DISPONIBLE INSUFICIENTE                       *
14513771488786003   00002237201805180005000000000049000000000114623115           0  0               021DISPONIBLE INSUFICIENTE                       *
14398186644007006   00003015201805180005000000000023800000000006495803           0  0               021DISPONIBLE INSUFICIENTE                       *
14517570010383743   00001312201805210005000000000060500000000020248053           0  0               020RECHAZADA POR EL EMISOR DE LA TARJETA         *
14575960041859283   00001009201805210005000000000047300000000027473424           0  0               020RECHAZADA POR EL EMISOR DE LA TARJETA         *
14517570038805768   00001060201805210005000000000048300000000026548019           0  0               020RECHAZADA POR EL EMISOR DE LA TARJETA         *
14517570036544286   00001303201805210005000000000044600000000024071380           0  0               020RECHAZADA POR EL EMISOR DE LA TARJETA         *
14517570040487746   00001329201805210005000000000077000000000028788791           0  0               020RECHAZADA POR EL EMISOR DE LA TARJETA         *
14517660124236174   00002043201805210005000000000084600000000034709864           0  0               020RECHAZADA POR EL EMISOR DE LA TARJETA         *
14815019220006594   00003071201805210005000000000027200000000091429796           0  0               020RECHAZADA POR EL EMISOR DE LA TARJETA         *
14737170025994578   00003229201805210005000000000072900000000037379962           0  0               020RECHAZADA POR EL EMISOR DE LA TARJETA         *
14517570024375925   00001297201805210005000000000069000000000018436955           0  0               020RECHAZADA POR EL EMISOR DE LA TARJETA         *
14517570043703917   00001023201805210005000000000036800000000031746147           0  0               020RECHAZADA POR EL EMISOR DE LA TARJETA         *
14517570037497328   00001379201805210005000000000045300000000037251742           0  0               020RECHAZADA POR EL EMISOR DE LA TARJETA         *
14813979094042003   00002562201805210005000000000047000000000039591347           0  0               020RECHAZADA POR EL EMISOR DE LA TARJETA         *
14513770371242066   00000683201805220005000000000038600000000033128745           0  0               022TARJETA NO REGISTRADA                         *
14513770680806098   00000331201805220005000000000032300000000026458484           0  0               019OPERACION NO PERMITIDA PARA ESA TARJETA       *
14513772103979007   00000890201805220005000000000019300000000032813985           0  0               022TARJETA NO REGISTRADA                         *
14513779802818006   00000469201805220005000000000037400000000030021603           0  0               022TARJETA NO REGISTRADA                         *
14513770956576011   00000955201805220005000000000023800000000024001080           0  0               022TARJETA NO REGISTRADA                         *
14513770956576011   00001107201805220005000000000025100000000012031638           0  0               022TARJETA NO REGISTRADA                         *
14513771907684011   00000459201805220005000000000021500000000014950103           0  0               022TARJETA NO REGISTRADA                         *
14513771444851016   00000929201805220005000000000055000000000024577571           0  0               022TARJETA NO REGISTRADA                         *
14398185923369020   00000461201805220005000000000021500000000117496976           0  0               022TARJETA NO REGISTRADA                         *
14398185923369020   00000141201805220005000000000082700000000017496976           0  0               022TARJETA NO REGISTRADA                         *
14513770870658028   00000888201805220005000000000032300000000010648012           0  0               022TARJETA NO REGISTRADA                         *
14513771469006017   00000588201805220005000000000019300000000018270389           0  0               022TARJETA NO REGISTRADA                         *
14513771780568000   00000714201805220005000000000032800000000026216046           0  0               022TARJETA NO REGISTRADA                         *
14513770681511044   00001090201805220005000000000033800000000028129048           0  0               022TARJETA NO REGISTRADA                         *
14513770673287025   00000344201805220005000000000032300000000031738681           0  0               022TARJETA NO REGISTRADA                         *
14513771444651002   00000687201805220005000000000026100000000023263938           0  0               022TARJETA NO REGISTRADA                         *
14513770845071018   00000793201805220005000000000038600000000034530287           0  0               022TARJETA NO REGISTRADA                         *
14398181770198026   00000633201805220005000000000084600000000018577327           0  0               022TARJETA NO REGISTRADA                         *
14513770747711018   00000647201805220005000000000074800000000024765849           0  0               022TARJETA NO REGISTRADA                         *
14517570097988109   00001259201805220005000000000019300000000031672747           0  0               040TARJETA INEXISTENTE                           *
14513771565159009   00000783201805220005000000000038600000000020014712           0  0               022TARJETA NO REGISTRADA                         *
14513771710643006   00000308201805220005000000000019300000000032005720           0  0               022TARJETA NO REGISTRADA                         *
14062900396838011   00000364201805220005000000000040200000000031247939           0  0               022TARJETA NO REGISTRADA                         *
14513771468978018   00000720201805220005000000000019300000000122404541           0  0               022TARJETA NO REGISTRADA                         *
14513771468978018   00000719201805220005000000000039700000000022404541           0  0               022TARJETA NO REGISTRADA                         *
14513771276287016   00000770201805220005000000000036200000000032918431           0  0               022TARJETA NO REGISTRADA                         *
14513771565159009   00000784201805220005000000000038600000000120014712           0  0               022TARJETA NO REGISTRADA                         *
14513771276287016   00000771201805220005000000000020500000000132918431           0  0               022TARJETA NO REGISTRADA                         *
14513771791978024   00000879201805220005000000000056000000000036259070           0  0               022TARJETA NO REGISTRADA                         *
14513771468929011   00000807201805220005000000000042500000000017419399           0  0               022TARJETA NO REGISTRADA                         *
14398186569313140   00001359201805220005000000000021500000000024815155           0  0               022TARJETA NO REGISTRADA                         *
14398181770198026   00000645201805220005000000000051100000000018577327           0  0               022TARJETA NO REGISTRADA                         *
14513771565159009   00000785201805220005000000000024000000000120014712           0  0               022TARJETA NO REGISTRADA                         *
14513770793391020   00001138201805220005000000000021500000000024246057           0  0               022TARJETA NO REGISTRADA                         *
14062900057444000   00000394201805220005000000000019300000000016289029           0  0               022TARJETA NO REGISTRADA                         *
14513771902411006   00001551201805220005000000000071400000000036223809           0  0               022TARJETA NO REGISTRADA                         *
14513771721278008   00001420201805220005000000000042600000000039743553           0  0               022TARJETA NO REGISTRADA                         *
14513771352822025   00001424201805220005000000000037400000000025325924           0  0               022TARJETA NO REGISTRADA                         *
14517570045310240   00001086201805220005000000000043000000000023221569           0  0               040TARJETA INEXISTENTE                           *
14517570045310240   00001087201805220005000000000029500000000123221569           0  0               040TARJETA INEXISTENTE                           *
14517570042475780   00001574201805220005000000000023800000000011792077           0  0               040TARJETA INEXISTENTE                           *
14513770956576011   00001593201805220005000000000021500000000124001080           0  0               022TARJETA NO REGISTRADA                         *
14398186569313140   00001357201805220005000000000021500000000124815155           0  0               022TARJETA NO REGISTRADA                         *
14513771680908009   00001652201805220005000000000071600000000032615954           0  0               022TARJETA NO REGISTRADA                         *
14517570033109810   00001309201805220005000000000112800000000033291643           0  0               040TARJETA INEXISTENTE                           *
14513772251529000   00001963201805220005000000000053200000000038004106           0  0               022TARJETA NO REGISTRADA                         *
14513772250772007   00001969201805220005000000000023800000000040082732           0  0               022TARJETA NO REGISTRADA                         *
14513771225001005   00001778201805220005000000000048700000000032007324           0  0               022TARJETA NO REGISTRADA                         *
14513771801906007   00001788201805220005000000000054600000000021931470           0  0               022TARJETA NO REGISTRADA                         *
14513770844531012   00002082201805220005000000000031700000000018856087           0  0               022TARJETA NO REGISTRADA                         *
14513771704784014   00001531201805220005000000000027200000000024914016           0  0               022TARJETA NO REGISTRADA                         *
14513770284679008   00002155201805220005000000000040000000000010528079           0  0               022TARJETA NO REGISTRADA                         *
14737210821174007   00002904201805220005000000000047600000000042454937           0  0               019OPERACION NO PERMITIDA PARA ESA TARJETA       *
14513771801906007   00002247201805220005000000000047300000000121931470           0  0               022TARJETA NO REGISTRADA                         *
14513771801906007   00002246201805220005000000000055200000000038011632           0  0               022TARJETA NO REGISTRADA                         *
14737109000366519   00002730201805220005000000000027000000000022950346           0  0               019OPERACION NO PERMITIDA PARA ESA TARJETA       *
14737210821174007   00002593201805220005000000000073000000000042454936           0  0               019OPERACION NO PERMITIDA PARA ESA TARJETA       *
14398185867857030   00002523201805220005000000000054800000000036858371           0  0               022TARJETA NO REGISTRADA                         *
14513770284679008   00002155201805220005000000000040000000000010528079           0  0               022TARJETA NO REGISTRADA                         *
14813979098978004   00003041201805220005000000000087500000000039834675           0  0               034SE REINTENTARA AUTORIZACION AUTOMATICA        *
14517722630142310   00002661201805220005000000000056000000000038284328           0  0               034SE REINTENTARA AUTORIZACION AUTOMATICA        *
14513771225142015   00003184201805220005000000000044200000000031616529           0  0               034SE REINTENTARA AUTORIZACION AUTOMATICA        *
14513771780572010   00003186201805220005000000000064600000000032334565           0  0                                                                *
14513771156858019   00003193201805220005000000000038500000000022174541           0  0               034SE REINTENTARA AUTORIZACION AUTOMATICA        *
14513771445472010   00003605201805220005000000000081800000000035955833           0  0               034SE REINTENTARA AUTORIZACION AUTOMATICA        *
9LDEBLIQD900000    00324762692018052309070000089000000003926900                                                                                      *
