H30716028956CUOTA     00001092023
D00027541214034026740812485924401800000000078           31082023CUOTA         00027541214EDIT EL FARO   0001528300P                                    R15   0000000000000003108202300000VTO130716028956
D00037056121034025060812203427500400000014386           31082023CUOTA         00037056121EDIT EL FARO   0000350000P                                    R15   0000000000000003108202300000VTO130716028956
D00034947399034010770810701215800700000012664           31082023CUOTA         00034947399EDIT EL FARO   0000562000P                                    R10   0000000000000003108202300000VTO130716028956
D00024071380034026120812200645700100000000126           31082023CUOTA         00024071380EDIT EL FARO   0001800000P                                    R10   0000000000000003108202300000VTO130716028956
D00033368833034025130812218294300200000000035           31082023CUOTA         00033368833EDIT EL FARO   0003500000P                                    R10   0000000000000003108202300000VTO130716028956
D00022014431034026120812385124600800000000009           31082023CUOTA         00022014431EDIT EL FARO   0000307000P                                    R10   0000000000000003108202300000VTO130716028956
D00022014431034026120812385124600800000000008           31082023CUOTA         00022014431EDIT EL FARO   0000598000P                                    R10   0000000000000003108202300000VTO130716028956
D00022014431034026120812385124600800000000124           31082023CUOTA         00022014431EDIT EL FARO   0000700000P                                    R10   0000000000000003108202300000VTO130716028956
D00021666833034026120812385125100400000000017           31082023CUOTA         00021666833EDIT EL FARO   0000320000P                                    R10   0000000000000003108202300000VTO130716028956
D00021666833034026120812385125100400000000006           31082023CUOTA         00021666833EDIT EL FARO   0001484200P                                    R10   0000000000000003108202300000VTO130716028956
D00022611686034026120812385137800400000000130           31082023CUOTA         00022611686EDIT EL FARO   0000650000P                                    R10   0000000000000003108202300000VTO130716028956
D00031524047034026120812385181703100000000133           31082023CUOTA         00031524047EDIT EL FARO   0000550000P                                    R10   0000000000000003108202300000VTO130716028956
D00039866510034026120812385871200100000000092           31082023CUOTA         00039866510EDIT EL FARO   0000800000P                                    R10   0000000000000003108202300000VTO130716028956
D00026403837034026430812435094801300000014375           31082023CUOTA         00026403837EDIT EL FARO   0000189000P                                    R02   0000000000000003108202300000VTO130716028956
D00037928725034026430812435620600100000012104           31082023CUOTA         00037928725EDIT EL FARO   0000325000P                                    R10   0000000000000003108202300000VTO130716028956
D00014741927034026430812435674300100000009249           31082023CUOTA         00014741927EDIT EL FARO   0000220000P                                    R10   0000000000000003108202300000VTO130716028956
D00032560713034026740812485092802300000000077           31082023CUOTA         00032560713EDIT EL FARO   0001812200P                                    R10   0000000000000003108202300000VTO130716028956
D00033878188034014730814702296800300000009342           31082023CUOTA         00033878188EDIT EL FARO   0000210000P                                    R10   0000000000000003108202300000VTO130716028956
D00040206269034029710829700928600500000012646           31082023CUOTA         00040206269EDIT EL FARO   0000450000P                                    R10   0000000000000003108202300000VTO130716028956
D00027492550034025370871944722400800000009408           31082023CUOTA         00027492550EDIT EL FARO   0000150000P                                    R10   0000000000000003108202300000VTO130716028956
D00017738859034025370873002520800500000014376           31082023CUOTA         00017738859EDIT EL FARO   0001250000P                                    R10   0000000000000003108202300000VTO130716028956
D00038548303034026120812385640500000000000120           31082023CUOTA         00038548303EDIT EL FARO   0001250000P                                    R03   0000000000000003108202300000VTO130716028956
D00030492327034026120871945396800000000000115           31082023CUOTA         00030492327EDIT EL FARO   0002000000P                                    R00   0000000000000003108202300000VTO130716028956
D00028487957034026120812386012100800000000128           31082023CUOTA         00028487957EDIT EL FARO   0001600000P                                    R00   0000000000000003108202300000VTO130716028956
D00027190929034026120873004139400900000000129           31082023CUOTA         00027190929EDIT EL FARO   0001120000P                                    R00   0000000000000003108202300000VTO130716028956
D00033865889034026120812385324100100000000110           31082023CUOTA         00033865889EDIT EL FARO   0001558000P                                    R00   0000000000000003108202300000VTO130716028956
D00021666804034026120812385314000100000000131           31082023CUOTA         00021666804EDIT EL FARO   0001550000P                                    R00   0000000000000003108202300000VTO130716028956
D00028487948034026120812385333400600000000135           31082023CUOTA         00028487948EDIT EL FARO   0000160000P                                    R00   0000000000000003108202300000VTO130716028956
D00024071391034026120812385287701200000000111           31082023CUOTA         00024071391EDIT EL FARO   0000610000P                                    R00   0000000000000003108202300000VTO130716028956
D00020343732034026120812385124300900000000114           31082023CUOTA         00020343732EDIT EL FARO   0000375000P                                    R00   0000000000000003108202300000VTO130716028956
D00016644633034026120812385225701800000000121           31082023CUOTA         00016644633EDIT EL FARO   0000620000P                                    R00   0000000000000003108202300000VTO130716028956
D00028487948034026120812385333400600000000112           31082023CUOTA         00028487948EDIT EL FARO   0001388000P                                    R00   0000000000000003108202300000VTO130716028956
D00025888787034026120812385108400200000000119           31082023CUOTA         00025888787EDIT EL FARO   0000962000P                                    R00   0000000000000003108202300000VTO130716028956
D00012257569034026120812385606500800000000132           31082023CUOTA         00012257569EDIT EL FARO   0000795000P                                    R00   0000000000000003108202300000VTO130716028956
D00034436633034027800812670015000000000000122           31082023CUOTA         00034436633EDIT EL FARO   0001120000P                                    R00   0000000000000003108202300000VTO130716028956
D00030492327034026120871945396800000000000116           31082023CUOTA         00030492327EDIT EL FARO   0000450000P                                    R00   0000000000000003108202300000VTO130716028956
D00025519054034026120812385018302100000000123           31082023CUOTA         00025519054EDIT EL FARO   0000320000P                                    R00   0000000000000003108202300000VTO130716028956
D00024739344034026120812385232602600000000125           31082023CUOTA         00024739344EDIT EL FARO   0002000000P                                    R00   0000000000000003108202300000VTO130716028956
D00035748009034029400829440151701000000000109           31082023CUOTA         00035748009EDIT EL FARO   0001700000P                                    R00   0000000000000003108202300000VTO130716028956
D00014074608034029400873002378900300000000034           31082023CUOTA         00014074608EDIT EL FARO   0002138000P                                    R00   0000000000000003108202300000VTO130716028956
D00033239428034029400829440074400200000000105           31082023CUOTA         00033239428EDIT EL FARO   0002324000P                                    R00   0000000000000003108202300000VTO130716028956
D00033368833034025130812218294300200000000036           31082023CUOTA         00033368833EDIT EL FARO   0000430000P                                    R00   0000000000000003108202300000VTO130716028956
D00026474863034026120812385398501300000000025           31082023CUOTA         00026474863EDIT EL FARO   0002720000P                                    R00   0000000000000003108202300000VTO130716028956
D00027483544034026740812568563800800000000026           31082023CUOTA         00027483544EDIT EL FARO   0001700000P                                    R00   0000000000000003108202300000VTO130716028956
D00017764979034026120873005563600900000000023           31082023CUOTA         00017764979EDIT EL FARO   0000500000P                                    R00   0000000000000003108202300000VTO130716028956
D00017764957034026120873005491000100000000024           31082023CUOTA         00017764957EDIT EL FARO   0001300000P                                    R00   0000000000000003108202300000VTO130716028956
D00024558830034026120873005589300000000000021           31082023CUOTA         00024558830EDIT EL FARO   0000690000P                                    R00   0000000000000003108202300000VTO130716028956
D00032246836034026120871945417700100000000095           31082023CUOTA         00032246836EDIT EL FARO   0002851200P                                    R00   0000000000000003108202300000VTO130716028956
D00023900448034026120812235616401700000000099           31082023CUOTA         00023900448EDIT EL FARO   0000550000P                                    R00   0000000000000003108202300000VTO130716028956
D00029900292034029400812385030100700000000097           31082023CUOTA         00029900292EDIT EL FARO   0001812200P                                    R00   0000000000000003108202300000VTO130716028956
D00039584759034025060812204044700800000000098           31082023CUOTA         00039584759EDIT EL FARO   0000648200P                                    R00   0000000000000003108202300000VTO130716028956
D00021666804034026120812385314000100000000091           31082023CUOTA         00021666804EDIT EL FARO   0000895000P                                    R00   0000000000000003108202300000VTO130716028956
D00023537153034026120873005515200400000000011           31082023CUOTA         00023537153EDIT EL FARO   0000570000P                                    R00   0000000000000003108202300000VTO130716028956
D00024739344034026120812385232602600000000005           31082023CUOTA         00024739344EDIT EL FARO   0001437000P                                    R00   0000000000000003108202300000VTO130716028956
D00030492302034026120812385041002600000000100           31082023CUOTA         00030492302EDIT EL FARO   0000780000P                                    R00   0000000000000003108202300000VTO130716028956
D00024071391034026120812385287701200000000096           31082023CUOTA         00024071391EDIT EL FARO   0001055000P                                    R00   0000000000000003108202300000VTO130716028956
D00027190933034026120871945341001300000000007           31082023CUOTA         00027190933EDIT EL FARO   0000651400P                                    R00   0000000000000003108202300000VTO130716028956
D00034436640034026120812385317801500000000012           31082023CUOTA         00034436640EDIT EL FARO   0000650000P                                    R00   0000000000000003108202300000VTO130716028956
D00031524044034027800812673084300600000000014           31082023CUOTA         00031524044EDIT EL FARO   0001476000P                                    R00   0000000000000003108202300000VTO130716028956
D00028487946034026120812385381600500000000013           31082023CUOTA         00028487946EDIT EL FARO   0000250000P                                    R00   0000000000000003108202300000VTO130716028956
D00027190929034026120873004139400900000000003           31082023CUOTA         00027190929EDIT EL FARO   0001366100P                                    R00   0000000000000003108202300000VTO130716028956
D00023371585034026120812385074300500000000001           31082023CUOTA         00023371585EDIT EL FARO   0000680000P                                    R00   0000000000000003108202300000VTO130716028956
D00023339878034026120812385313800400000000093           31082023CUOTA         00023339878EDIT EL FARO   0000816000P                                    R00   0000000000000003108202300000VTO130716028956
D00028487957034026120812386012100800000000004           31082023CUOTA         00028487957EDIT EL FARO   0000630000P                                    R00   0000000000000003108202300000VTO130716028956
D00030445066034014730814702015900100000014714           31082023CUOTA         00030445066EDIT EL FARO   0001080000P                                    R00   0000000000000003108202300000VTO130716028956
D00036652046034025370812253963600100000011765           31082023CUOTA         00036652046EDIT EL FARO   0000220000P                                    R00   0000000000000003108202300000VTO130716028956
D00034096594034025200812234892500000000009266           31082023CUOTA         00034096594EDIT EL FARO   0000480000P                                    R00   0000000000000003108202300000VTO130716028956
D00042317928034030350830301007200400000012112           31082023CUOTA         00042317928EDIT EL FARO   0000299000P                                    R00   0000000000000003108202300000VTO130716028956
D00035598838034025130812222852700100000014378           31082023CUOTA         00035598838EDIT EL FARO   0000530000P                                    R00   0000000000000003108202300000VTO130716028956
D00029940827034025060812203106900400000014389           31082023CUOTA         00029940827EDIT EL FARO   0000250000P                                    R00   0000000000000003108202300000VTO130716028956
D00025672240034035300835300248300600000013729           31082023CUOTA         00025672240EDIT EL FARO   0000520000P                                    R00   0000000000000003108202300000VTO130716028956
D00035505146034037830837800524800300000013264           31082023CUOTA         00035505146EDIT EL FARO   0000140000P                                    R00   0000000000000003108202300000VTO130716028956
D00029287712034026430812434178800200000009164           31082023CUOTA         00029287712EDIT EL FARO   0000140000P                                    R00   0000000000000003108202300000VTO130716028956
D00010490432034028580828501843300600000012136           31082023CUOTA         00010490432EDIT EL FARO   0000350000P                                    R00   0000000000000003108202300000VTO130716028956
D00036727794034026740812486073400700000011286           31082023CUOTA         00036727794EDIT EL FARO   0000105000P                                    R00   0000000000000003108202300000VTO130716028956
T0000075000000070367800
