00016061C201901033EMPRESA000000036346000000070                                                                                                                                                                                                                                                                                                                
037022258584              00140318100003654450030242EDITORIAL      2019010700000000088800000000000000000000000000000000000000000000000   000000000000000                      0000000000000000000000000000000000000000                                                                                                                                        
037030628257              00140317400003643502492462AUXILIAR       2019010700000000055000000000000000000000000000000000000000000000000   000000000000000                      0000000000000000000000000000000000000000                                                                                                                                        
037031482171              00070251700030004008037340EMPLEADA RURAL 2019010700000000052200000000000000000000000000000000000000000000000   000000000000000                      0000000000000000000000000000000000000000                                                                                                                                        
037011730653              00140075500003501708408235EDITORIAL      2019010700000000084000000000000000000000000000000000000000000000000   000000000000000                      0000000000000000000000000000000000000000                                                                                                                                        
037017957675              00930306300021500100673696DOCENTE        2019010700000000031000000000000000000000000000000000000000000000000   000000000000000                      0000000000000000000000000000000000000000                                                                                                                                        
037030312561              00140318100003654450298567AUXILIAR       2019010700000000039600000000000000000000000000000000000000000000000   000000000000000                      0000000000000000000000000000000000000000                                                                                                                                        
037033039203              00930301800021500103905396DOCENTE        2019010700000000020400000000000000000000000000000000000000000000000   000000000000000                      0000000000000000000000000000000000000000                                                                                                                                        
037030147831              00140466500003619050755489EDITORIAL      2019010700000000030900000000000000000000000000000000000000000000000   000000000000000                      0000000000000000000000000000000000000000                                                                                                                                        
037030393638              03860008900005000040685545EDITORIAL      2019010700000000023200000000000000000000000000000000000000000000000   000000000000000                      0000000000000000000000000000000000000000                                                                                                                                        
037017880307              00140032800003503350904408DOCENTE        2019010700000000047000000000000000000000000000000000000000000000000   000000000000000                      0000000000000000000000000000000000000000                                                                                                                                        
037023200206              03300034100020340006373000DOCENTE        2019010700000000023800000000000000000000000000000000000000000000000   000000000000000                      0000000000000000000000000000000000000000                                                                                                                                        
037027821459              00140032800003503350918104AUXILIAR       2019010700000000040800000000000000000000000000000000000000000000000   000000000000000                      0000000000000000000000000000000000000000                                                                                                                                        
037040298760              00200358800011000011309862AUXILIAR       2019010700000000058000000000000000000000000000000000000000000000000   000000000000000                      0000000000000000000000000000000000000000                                                                                                                                        
037021693774              00200333500011000078922712DOCENTE        2019010700000000023800000000000000000000000000000000000000000000000   000000000000000                      0000000000000000000000000000000000000000                                                                                                                                        
037021892045              00140032800003503350229833AUXILIAR       2019010700000000020400000000000000000000000000000000000000000000000   000000000000000                      0000000000000000000000000000000000000000                                                                                                                                        
037035058812              00340294000008294401610009POLICIA        2019010700000000027100000000000000000000000000000000000000000000000   000000000000000                      0000000000000000000000000000000000000000                                                                                                                                        
037087641403              00970099400055000823030011CUOTA LIBRO    2019010700000000076600000000000000000000000000000000000000000000000   000000000000000                      0000000000000000000000000000000000000000                                                                                                                                        
037028135744              03860036200005000046048146ADMINISTRATIVA 2019010700000000060900000000000000000000000000000000000000000000000   000000000000000                      0000000000000000000000000000000000000000                                                                                                                                        
037016652704              00200333500011000051450326ENFERMERA      2019010700000000043000000000000000000000000000000000000000000000000   000000000000000                      0000000000000000000000000000000000000000                                                                                                                                        
037029881864              00970007900055002548190016DOCENTE        2019010700000000058000000000000000000000000000000000000000000000000   000000000000000                      0000000000000000000000000000000000000000                                                                                                                                        
037037373392              00110146700030014613459479MUCAMA         2019010700000000048500000000000000000000000000000000000000000000000   000000000000000                      0000000000000000000000000000000000000000                                                                                                                                        
037030009572              00970007900055002750990046DOCENTE        2019010700000000060000000000000000000000000000000000000000000000000   000000000000000                      0000000000000000000000000000000000000000                                                                                                                                        
037030584149              00970007900055002468280017DOCENTE        2019010700000000075600000000000000000000000000000000000000000000000   000000000000000                      0000000000000000000000000000000000000000                                                                                                                                        
037021047577              01910138700055113862004603EDITORIAL      2019010700000000065200000000000000000000000000000000000000000000000   000000000000000                      0000000000000000000000000000000000000000                                                                                                                                        
037031524819              00340261200008123855202015POLICIA        2019010700000000049900000000000000000000000000000000000000000000000   000000000000000                      0000000000000000000000000000000000000000                                                                                                                                        
037032664952              00930331500021500103557528ENFERMERA      2019010700000000040000000000000000000000000000000000000000000000000   000000000000000                      0000000000000000000000000000000000000000                                                                                                                                        
037033307705              00970007900055005419830019DOCENTE        2019010700000000061500000000000000000000000000000000000000000000000   000000000000000                      0000000000000000000000000000000000000000                                                                                                                                        
037033331991              00970007900060006758460019DOCENTE        2019010700000000068000000000000000000000000000000000000000000000000   000000000000000                      0000000000000000000000000000000000000000                                                                                                                                        
037033870936              00340294000008294401094007POLICIA        2019010700000000039100000000000000000000000000000000000000000000000   000000000000000                      0000000000000000000000000000000000000000                                                                                                                                        
037034373247              00340250600008122345375006POLICIA        2019010700000000046500000000000000000000000000000000000000000000000   000000000000000                      0000000000000000000000000000000000000000                                                                                                                                        
037035601157              00340250600008122039129009POLICIA        2019010700000000049900000000000000000000000000000000000000000000000   000000000000000                      0000000000000000000000000000000000000000                                                                                                                                        
037026449207              00970007900055001718850024ENFERMERA      2019010700000000036300000000000000000000000000000000000000000000000   000000000000000                      0000000000000000000000000000000000000000                                                                                                                                        
037026546897              00970007900055002947900018EDITORIAL      2019010700000000082600000000000000000000000000000000000000000000000   000000000000000                      0000000000000000000000000000000000000000                                                                                                                                        
037028674555              00140360000003659050974440AUXILIAR       2019010700000000027200000000000000000000000000000000000000000000000   000000000000000                      0000000000000000000000000000000000000000                                                                                                                                        
037004928311              01910138700055113862004603EDITORIAL      2019010700000000053300000000000000000000000000000000000000000000000   000000000000000                      0000000000000000000000000000000000000000                                                                                                                                        
037037121383              00110119100030011910616765EDITORIAL      2019010700000000056000000000000000000000000000000000000000000000000   000000000000000                      0000000000000000000000000000000000000000                                                                                                                                        
037037348960              00970007900055004648700021DOCENTE        2019010700000000071300000000000000000000000000000000000000000000000   000000000000000                      0000000000000000000000000000000000000000                                                                                                                                        
037037943633              00970007900055007535470027DOCENTE        2019010700000000083500000000000000000000000000000000000000000000000   000000000000000                      0000000000000000000000000000000000000000                                                                                                                                        
037032694991              00970007900055003845230027POLICIA        2019010700000000054000000000000000000000000000000000000000000000000   000000000000000                      0000000000000000000000000000000000000000                                                                                                                                        
037017641403              00970099400055000823030011EDITORIAL      2019010700000000101700000000000000000000000000000000000000000000000   000000000000000                      0000000000000000000000000000000000000000                                                                                                                                        
037022909158              00970007900055001724930019EDITORIAL      2019010700000000023800000000000000000000000000000000000000000000000   000000000000000                      0000000000000000000000000000000000000000                                                                                                                                        
037023926268              00970007900055000306400012EDITORIAL      2019010700000000070000000000000000000000000000000000000000000000000   000000000000000                      0000000000000000000000000000000000000000                                                                                                                                        
037030567024              00970007900055004471890021EDITORIAL      2019010700000000023800000000000000000000000000000000000000000000000   000000000000000                      0000000000000000000000000000000000000000                                                                                                                                        
037037129341              00970007900055007726440015DOCENTE        2019010700000000083500000000000000000000000000000000000000000000000   000000000000000                      0000000000000000000000000000000000000000                                                                                                                                        
037033663599              00970007900060004064630023EDITORIAL      2019010700000000073000000000000000000000000000000000000000000000000   000000000000000                      0000000000000000000000000000000000000000                                                                                                                                        
037077641403              00970099400055000823030011DOCENTE        2019010700000000087100000000000000000000000000000000000000000000000   000000000000000                      0000000000000000000000000000000000000000                                                                                                                                        
037076546897              00970007900055002947900018EDITORIAL      2019010700000000066700000000000000000000000000000000000000000000000   000000000000000                      0000000000000000000000000000000000000000                                                                                                                                        
037070584149              00970007900055002468280017EDITORIAL      2019010700000000059100000000000000000000000000000000000000000000000   000000000000000                      0000000000000000000000000000000000000000                                                                                                                                        
037034657635              00970007900060007138840010DOCENTE        2019010700000000083500000000000000000000000000000000000000000000000   000000000000000                      0000000000000000000000000000000000000000                                                                                                                                        
037075094709              00970011600055004485170012EDITORIAL      2019010700000000049600000000000000000000000000000000000000000000000   000000000000000                      0000000000000000000000000000000000000000                                                                                                                                        
037016188052              00930322300021500098567100EDITORIAL      2019010700000000030000000000000000000000000000000000000000000000000   000000000000000                      0000000000000000000000000000000000000000                                                                                                                                        
037036840975              00970007900060005099140037EDITORIAL      2019010700000000083500000000000000000000000000000000000000000000000   000000000000000                      0000000000000000000000000000000000000000                                                                                                                                        
037024914016              00140442900003610551286337DOCENTE        2019010700000000027200000000000000000000000000000000000000000000000   000000000000000                      0000000000000000000000000000000000000000                                                                                                                                        
037038043229              00140400900003699052200842EDITORIAL      2019010700000000049900000000000000000000000000000000000000000000000   000000000000000                      0000000000000000000000000000000000000000                                                                                                                                        
037027986722              00970007900055004484260033DOCENTE        2019010700000000058000000000000000000000000000000000000000000000000   000000000000000                      0000000000000000000000000000000000000000                                                                                                                                        
037032432999              00140353200003613050372802EDITORIAL      2019010700000000081800000000000000000000000000000000000000000000000   000000000000000                      0000000000000000000000000000000000000000                                                                                                                                        
037073039203              00930301800021500103905396EDITORIAL      2019010700000000054200000000000000000000000000000000000000000000000   000000000000000                      0000000000000000000000000000000000000000                                                                                                                                        
037078043229              00140400900003699052200842EDITORIAL      2019010700000000045300000000000000000000000000000000000000000000000   000000000000000                      0000000000000000000000000000000000000000                                                                                                                                        
037011228760              00140360000003659001784540DOCENTE        2019010700000000023800000000000000000000000000000000000000000000000   000000000000000                      0000000000000000000000000000000000000000                                                                                                                                        
037013052704              00340264300008730061269017EDITORIAL      2019010700000000062600000000000000000000000000000000000000000000000   000000000000000                      0000000000000000000000000000000000000000                                                                                                                                        
037010892590              00110350000030035024788297EDITORIAL      2019010700000000045000000000000000000000000000000000000000000000000   000000000000000                      0000000000000000000000000000000000000000                                                                                                                                        
037010618781              00200358800011000011283544EDITORIAL      2019010700000000046000000000000000000000000000000000000000000000000   000000000000000                      0000000000000000000000000000000000000000                                                                                                                                        
037029881862              00970007900055001813300051AUXILIAR       2019010700000000023800000000000000000000000000000000000000000000000   000000000000000                      0000000000000000000000000000000000000000                                                                                                                                        
037037365950              01910358100055135800181421EDITORIAL      2019010700000000031700000000000000000000000000000000000000000000000   000000000000000                      0000000000000000000000000000000000000000                                                                                                                                        
037076188052              00930322300021500098567100EDITORIAL      2019010700000000023800000000000000000000000000000000000000000000000   000000000000000                      0000000000000000000000000000000000000000                                                                                                                                        
037025416888              00930331500021500103730864EDITORIAL      2019010700000000023800000000000000000000000000000000000000000000000   000000000000000                      0000000000000000000000000000000000000000                                                                                                                                        
037035094709              00970011600055004485170012EDITORIAL      2019010700000000049600000000000000000000000000000000000000000000000   000000000000000                      0000000000000000000000000000000000000000                                                                                                                                        
037035119896              00930311700020100067477189EDITORIAL      2019010700000000060000000000000000000000000000000000000000000000000   000000000000000                      0000000000000000000000000000000000000000                                                                                                                                        
037030918736              00140318100003654450721748EDITORIAL      2019010700000000070000000000000000000000000000000000000000000000000   000000000000000                      0000000000000000000000000000000000000000                                                                                                                                        
037024162712              00200333500011000030298844ADMINISTRATIVA 2019010700000000049900000000000000000000000000000000000000000000000   000000000000000                      0000000000000000000000000000000000000000                                                                                                                                        
99016061C201901033EMPRESA000000036346000000070                                                                                                                                                                                                                                                                                                                
